{
    "contractName": "AmuseVault",
    "abi": [
        {
            "inputs": [
                {
                    "internalType": "contract IAmused",
                    "name": "_amusedToken",
                    "type": "address"
                }
            ],
            "stateMutability": "nonpayable",
            "type": "constructor"
        },
        {
            "anonymous": false,
            "inputs": [
                {
                    "indexed": true,
                    "internalType": "address",
                    "name": "previousOwner",
                    "type": "address"
                },
                {
                    "indexed": true,
                    "internalType": "address",
                    "name": "newOwner",
                    "type": "address"
                }
            ],
            "name": "OwnershipTransferred",
            "type": "event"
        },
        {
            "anonymous": false,
            "inputs": [
                {
                    "indexed": true,
                    "internalType": "address",
                    "name": "user",
                    "type": "address"
                },
                {
                    "indexed": false,
                    "internalType": "uint256",
                    "name": "stakes",
                    "type": "uint256"
                },
                {
                    "indexed": false,
                    "internalType": "uint256",
                    "name": "timestamp",
                    "type": "uint256"
                }
            ],
            "name": "STAKE",
            "type": "event"
        },
        {
            "anonymous": false,
            "inputs": [
                {
                    "indexed": true,
                    "internalType": "address",
                    "name": "user",
                    "type": "address"
                },
                {
                    "indexed": false,
                    "internalType": "uint256",
                    "name": "amount",
                    "type": "uint256"
                },
                {
                    "indexed": false,
                    "internalType": "uint256",
                    "name": "tokenValue",
                    "type": "uint256"
                },
                {
                    "indexed": false,
                    "internalType": "uint256",
                    "name": "ethValue",
                    "type": "uint256"
                },
                {
                    "indexed": false,
                    "internalType": "uint256",
                    "name": "timestamp",
                    "type": "uint256"
                }
            ],
            "name": "UNSTAKE",
            "type": "event"
        },
        {
            "inputs": [],
            "name": "AmuseToken",
            "outputs": [
                {
                    "internalType": "contract IAmused",
                    "name": "",
                    "type": "address"
                }
            ],
            "stateMutability": "view",
            "type": "function"
        },
        {
            "inputs": [],
            "name": "WETH",
            "outputs": [
                {
                    "internalType": "address",
                    "name": "",
                    "type": "address"
                }
            ],
            "stateMutability": "view",
            "type": "function"
        },
        {
            "inputs": [
                {
                    "internalType": "address",
                    "name": "_account",
                    "type": "address"
                },
                {
                    "internalType": "uint256",
                    "name": "_amount",
                    "type": "uint256"
                }
            ],
            "name": "calculateStakeRewards",
            "outputs": [
                {
                    "internalType": "uint256",
                    "name": "_tokenValueEarned",
                    "type": "uint256"
                },
                {
                    "internalType": "uint256",
                    "name": "_ethValueEarned",
                    "type": "uint256"
                }
            ],
            "stateMutability": "view",
            "type": "function"
        },
        {
            "inputs": [
                {
                    "internalType": "address",
                    "name": "token0",
                    "type": "address"
                },
                {
                    "internalType": "address",
                    "name": "token1",
                    "type": "address"
                },
                {
                    "internalType": "uint256",
                    "name": "_amount",
                    "type": "uint256"
                }
            ],
            "name": "getAmountsOut",
            "outputs": [
                {
                    "internalType": "uint256[]",
                    "name": "amounts",
                    "type": "uint256[]"
                }
            ],
            "stateMutability": "view",
            "type": "function"
        },
        {
            "inputs": [],
            "name": "getPool",
            "outputs": [
                {
                    "internalType": "address",
                    "name": "pool",
                    "type": "address"
                }
            ],
            "stateMutability": "view",
            "type": "function"
        },
        {
            "inputs": [],
            "name": "owner",
            "outputs": [
                {
                    "internalType": "address",
                    "name": "",
                    "type": "address"
                }
            ],
            "stateMutability": "view",
            "type": "function"
        },
        {
            "inputs": [],
            "name": "renounceOwnership",
            "outputs": [],
            "stateMutability": "nonpayable",
            "type": "function"
        },
        {
            "inputs": [
                {
                    "internalType": "uint256",
                    "name": "_stakeTaxPercentage",
                    "type": "uint256"
                },
                {
                    "internalType": "uint256",
                    "name": "_unstakeTaxPercentage",
                    "type": "uint256"
                },
                {
                    "internalType": "uint256",
                    "name": "_stakeDivisor",
                    "type": "uint256"
                }
            ],
            "name": "setTax",
            "outputs": [],
            "stateMutability": "nonpayable",
            "type": "function"
        },
        {
            "inputs": [
                {
                    "internalType": "uint256",
                    "name": "_percentage",
                    "type": "uint256"
                },
                {
                    "internalType": "uint256",
                    "name": "_divisor",
                    "type": "uint256"
                },
                {
                    "internalType": "uint256",
                    "name": "_interval",
                    "type": "uint256"
                }
            ],
            "name": "setValutReward",
            "outputs": [],
            "stateMutability": "nonpayable",
            "type": "function"
        },
        {
            "inputs": [
                {
                    "internalType": "uint256",
                    "name": "_amount",
                    "type": "uint256"
                }
            ],
            "name": "stake",
            "outputs": [],
            "stateMutability": "nonpayable",
            "type": "function"
        },
        {
            "inputs": [],
            "name": "stakeDivisor",
            "outputs": [
                {
                    "internalType": "uint256",
                    "name": "",
                    "type": "uint256"
                }
            ],
            "stateMutability": "view",
            "type": "function"
        },
        {
            "inputs": [],
            "name": "stakeTaxPercentage",
            "outputs": [
                {
                    "internalType": "uint256",
                    "name": "",
                    "type": "uint256"
                }
            ],
            "stateMutability": "view",
            "type": "function"
        },
        {
            "inputs": [
                {
                    "internalType": "address",
                    "name": "",
                    "type": "address"
                }
            ],
            "name": "stakes",
            "outputs": [
                {
                    "internalType": "address",
                    "name": "user",
                    "type": "address"
                },
                {
                    "internalType": "uint256",
                    "name": "stakes",
                    "type": "uint256"
                },
                {
                    "internalType": "uint256",
                    "name": "timestamp",
                    "type": "uint256"
                }
            ],
            "stateMutability": "view",
            "type": "function"
        },
        {
            "inputs": [],
            "name": "totalTokenLocked",
            "outputs": [
                {
                    "internalType": "uint256",
                    "name": "",
                    "type": "uint256"
                }
            ],
            "stateMutability": "view",
            "type": "function"
        },
        {
            "inputs": [
                {
                    "internalType": "address",
                    "name": "newOwner",
                    "type": "address"
                }
            ],
            "name": "transferOwnership",
            "outputs": [],
            "stateMutability": "nonpayable",
            "type": "function"
        },
        {
            "inputs": [],
            "name": "uniswapV2Router",
            "outputs": [
                {
                    "internalType": "contract ISwapRouter",
                    "name": "",
                    "type": "address"
                }
            ],
            "stateMutability": "view",
            "type": "function"
        },
        {
            "inputs": [],
            "name": "uniswapV3Factory",
            "outputs": [
                {
                    "internalType": "contract IUniswapV3Factory",
                    "name": "",
                    "type": "address"
                }
            ],
            "stateMutability": "view",
            "type": "function"
        },
        {
            "inputs": [
                {
                    "internalType": "uint256",
                    "name": "_amount",
                    "type": "uint256"
                }
            ],
            "name": "unstake",
            "outputs": [],
            "stateMutability": "nonpayable",
            "type": "function"
        },
        {
            "inputs": [],
            "name": "unstakeTaxPercentage",
            "outputs": [
                {
                    "internalType": "uint256",
                    "name": "",
                    "type": "uint256"
                }
            ],
            "stateMutability": "view",
            "type": "function"
        },
        {
            "inputs": [],
            "name": "valutRewardDivisor",
            "outputs": [
                {
                    "internalType": "uint256",
                    "name": "",
                    "type": "uint256"
                }
            ],
            "stateMutability": "view",
            "type": "function"
        },
        {
            "inputs": [],
            "name": "valutRewardPercentage",
            "outputs": [
                {
                    "internalType": "uint256",
                    "name": "",
                    "type": "uint256"
                }
            ],
            "stateMutability": "view",
            "type": "function"
        },
        {
            "inputs": [],
            "name": "vaultRewardInterval",
            "outputs": [
                {
                    "internalType": "uint256",
                    "name": "",
                    "type": "uint256"
                }
            ],
            "stateMutability": "view",
            "type": "function"
        },
        {
            "stateMutability": "payable",
            "type": "receive"
        }
    ],
    "bytecode": "60806040523480156200001157600080fd5b506040516200164538038062001645833981016040819052620000349162000197565b6200003f3362000147565b6001808055600480546001600160a01b0384166001600160a01b0319918216811783556005600655600a60078190556064600881905560099590955593909355603c600b55600380548216737a250d5630b4cf539739df2c5dacb4c659f2488d90811790915560028054909216179055604080516315ab88c960e31b8152905163ad5c4648928281019260209291908290030181600087803b158015620000e557600080fd5b505af1158015620000fa573d6000803e3d6000fd5b505050506040513d601f19601f8201168201806040525081019062000120919062000197565b600580546001600160a01b0319166001600160a01b039290921691909117905550620001d7565b600080546001600160a01b038381166001600160a01b0319831681178455604051919092169283917f8be0079c531659141344cd1fd0a4f28419497f9722a3daafe3b4186f6b6457e09190a35050565b600060208284031215620001aa57600080fd5b8151620001b781620001be565b9392505050565b6001600160a01b0381168114620001d457600080fd5b50565b61145e80620001e76000396000f3fe6080604052600436106101395760003560e01c80638da5cb5b116100ab578063b0036c151161006f578063b0036c15146103a2578063c00c4da1146103b8578063c1c649fa146103ce578063ceda5506146103e4578063eb50811c14610404578063f2fde38b1461042457600080fd5b80638da5cb5b1461030e578063a694fc3a1461032c578063a983e4c81461034c578063ad5c46481461036c578063ae4290521461038c57600080fd5b806345608d00116100fd57806345608d001461024b5780634b18de1a146102785780635b549182146102ad5780636d307a5e146102cd578063715018a6146102e357806371f54b5e146102f857600080fd5b8063026b1d5f1461014857806316934fc41461017a5780631694505e146101e55780632e17de78146102055780633c65e66b1461022757600080fd5b3661014357600080fd5b600080fd5b34801561015457600080fd5b5061015d610444565b6040516001600160a01b0390911681526020015b60405180910390f35b34801561018657600080fd5b506101c06101953660046111d0565b600d602052600090815260409020805460018201546002909201546001600160a01b03909116919083565b604080516001600160a01b039094168452602084019290925290820152606001610171565b3480156101f157600080fd5b5060035461015d906001600160a01b031681565b34801561021157600080fd5b506102256102203660046112a0565b6104db565b005b34801561023357600080fd5b5061023d60085481565b604051908152602001610171565b34801561025757600080fd5b5061026b610266366004611211565b610a9c565b60405161017191906112fe565b34801561028457600080fd5b50610298610293366004611252565b610c22565b60408051928352602083019190915201610171565b3480156102b957600080fd5b5060025461015d906001600160a01b031681565b3480156102d957600080fd5b5061023d60065481565b3480156102ef57600080fd5b50610225610d41565b34801561030457600080fd5b5061023d600b5481565b34801561031a57600080fd5b506000546001600160a01b031661015d565b34801561033857600080fd5b506102256103473660046112a0565b610d77565b34801561035857600080fd5b506102256103673660046112d2565b611044565b34801561037857600080fd5b5060055461015d906001600160a01b031681565b34801561039857600080fd5b5061023d60075481565b3480156103ae57600080fd5b5061023d600a5481565b3480156103c457600080fd5b5061023d600c5481565b3480156103da57600080fd5b5061023d60095481565b3480156103f057600080fd5b5060045461015d906001600160a01b031681565b34801561041057600080fd5b5061022561041f3660046112d2565b61107c565b34801561043057600080fd5b5061022561043f3660046111d0565b6110b4565b600254600554604051630b4c774160e11b81523060048201526001600160a01b039182166024820152610bb860448201526000929190911690631698ee829060640160206040518083038186803b15801561049e57600080fd5b505afa1580156104b2573d6000803e3d6000fd5b505050506040513d601f19601f820116820180604052508101906104d691906111f4565b905090565b600260015414156105335760405162461bcd60e51b815260206004820152601f60248201527f5265656e7472616e637947756172643a207265656e7472616e742063616c6c0060448201526064015b60405180910390fd5b60026001908155336000908152600d6020526040902001546105a15760405162461bcd60e51b815260206004820152602160248201527f416d7573655661756c743a204e6f20616374697665207374616b6520666f756e6044820152601960fa1b606482015260840161052a565b6000811161060f5760405162461bcd60e51b815260206004820152603560248201527f416d7573655661756c743a20756e7374616b656420616d6f756e74206d7573746044820152742062652067726561746572207468616e207a65726f60581b606482015260840161052a565b336000908152600d602052604090206001015481111561068b5760405162461bcd60e51b815260206004820152603160248201527f416d7573655661756c743a20616d6f756e742069732067726561746572207468604482015270616e207374616b65642062616c616e636560781b606482015260840161052a565b60008061069a8360075461114f565b915091506000806106b16106ab3390565b86610c22565b60048054604051630951587760e01b81529182018490529294509092506001600160a01b0390911690630951587790602401600060405180830381600087803b1580156106fd57600080fd5b505af1158015610711573d6000803e3d6000fd5b5050505084600c600082825461072791906113d0565b9091555050336000908152600d602052604081206001015461074a9087906113d0565b9050604051806060016040528061075e3390565b6001600160a01b03168152602001828152602001600d600061077d3390565b6001600160a01b03166001600160a01b0316815260200190815260200160002060020154815250600d60006107af3390565b6001600160a01b03908116825260208083019390935260409182016000908120855181546001600160a01b03191693169290921782558484015160018084019190915594830151600290920191909155338152600d9092529020015461082657336000908152600d60205260409020426002909101555b6004805460405163a9059cbb60e01b81526001600160a01b039091169181018290526024810186905263a9059cbb90604401602060405180830381600087803b15801561087257600080fd5b505af1158015610886573d6000803e3d6000fd5b505050506040513d601f19601f820116820180604052508101906108aa919061127e565b50600480546040805160016209351760e01b0319815290516001600160a01b039092169263fff6cae992828201926000929082900301818387803b1580156108f157600080fd5b505af1158015610905573d6000803e3d6000fd5b50506004546001600160a01b0316915063a9059cbb9050336040516001600160e01b031960e084901b1681526001600160a01b03909116600482015260248101889052604401602060405180830381600087803b15801561096557600080fd5b505af1158015610979573d6000803e3d6000fd5b505050506040513d601f19601f8201168201806040525081019061099d919061127e565b50604051600090339084908381818185875af1925050503d80600081146109e0576040519150601f19603f3d011682016040523d82523d6000602084013e6109e5565b606091505b5050905080610a465760405162461bcd60e51b815260206004820152602760248201527f416d7573655661756c743a204554482072657761726473207472616e736665726044820152660819985a5b195960ca1b606482015260840161052a565b6040805188815260208101869052808201859052426060820152905133917fc5eece096a90b88da230c97e743f85a5cac07a97b65b25d38bbbb126981a3d41919081900360800190a25050600180555050505050565b60606000846001600160a01b03166370a08231610ab7610444565b6040516001600160e01b031960e084901b1681526001600160a01b03909116600482015260240160206040518083038186803b158015610af657600080fd5b505afa158015610b0a573d6000803e3d6000fd5b505050506040513d601f19601f82011682018060405250810190610b2e91906112b9565b90506000846001600160a01b03166370a08231610b49610444565b6040516001600160e01b031960e084901b1681526001600160a01b03909116600482015260240160206040518083038186803b158015610b8857600080fd5b505afa158015610b9c573d6000803e3d6000fd5b505050506040513d601f19601f82011682018060405250810190610bc091906112b9565b90506000610bce82846113b1565b90508484600081518110610be457610be46113fd565b6020908102919091010152610bf9858261138f565b84600181518110610c0c57610c0c6113fd565b6020026020010181815250505050509392505050565b6001600160a01b0382166000908152600d602052604081206001015481901580610c4a575082155b80610c6f57506001600160a01b0384166000908152600d602052604090206001015483115b15610c7f57506000905080610d3a565b600b546001600160a01b0385166000908152600d602052604081206002015460609290610cac90426113d0565b610cb6919061138f565b90506000600a5460095487610ccb91906113b1565b610cd5919061138f565b9050610ce181836113b1565b945084610cf75760008094509450505050610d3a565b600454600554610d14916001600160a01b03908116911687610a9c565b92508483600181518110610d2a57610d2a6113fd565b6020026020010151945094505050505b9250929050565b6000546001600160a01b03163314610d6b5760405162461bcd60e51b815260040161052a90611342565b610d756000611180565b565b336000908152600d602052604090206001015415610dd75760405162461bcd60e51b815260206004820152601f60248201527f416d7573655661756c743a20416374697665207374616b657320666f756e6400604482015260640161052a565b6004546001600160a01b03166323b872dd336040516001600160e01b031960e084901b1681526001600160a01b03909116600482015230602482015260448101849052606401602060405180830381600087803b158015610e3757600080fd5b505af1158015610e4b573d6000803e3d6000fd5b505050506040513d601f19601f82011682018060405250810190610e6f919061127e565b50600080610e7f8360065461114f565b9150915081600c6000828254610e959190611377565b9091555050604080516060810190915280336001600160a01b0316815260200183815260200142815250600d6000610eca3390565b6001600160a01b0390811682526020808301939093526040918201600020845181546001600160a01b0319169083161781559284015160018401559281015160029092019190915560048054915163a9059cbb60e01b8152919092169181018290526024810183905263a9059cbb90604401602060405180830381600087803b158015610f5657600080fd5b505af1158015610f6a573d6000803e3d6000fd5b505050506040513d601f19601f82011682018060405250810190610f8e919061127e565b50600480546040805160016209351760e01b0319815290516001600160a01b039092169263fff6cae992828201926000929082900301818387803b158015610fd557600080fd5b505af1158015610fe9573d6000803e3d6000fd5b50505050610ff43390565b6001600160a01b03167ffb905d00b56075f173c513362721039dca5448397637a1c127e11d07fed02d538442604051611037929190918252602082015260400190565b60405180910390a2505050565b6000546001600160a01b0316331461106e5760405162461bcd60e51b815260040161052a90611342565b600692909255600755600855565b6000546001600160a01b031633146110a65760405162461bcd60e51b815260040161052a90611342565b600992909255600a55600b55565b6000546001600160a01b031633146110de5760405162461bcd60e51b815260040161052a90611342565b6001600160a01b0381166111435760405162461bcd60e51b815260206004820152602660248201527f4f776e61626c653a206e6577206f776e657220697320746865207a65726f206160448201526564647265737360d01b606482015260840161052a565b61114c81611180565b50565b600080600854838561116191906113b1565b61116b919061138f565b905061117781856113d0565b91509250929050565b600080546001600160a01b038381166001600160a01b0319831681178455604051919092169283917f8be0079c531659141344cd1fd0a4f28419497f9722a3daafe3b4186f6b6457e09190a35050565b6000602082840312156111e257600080fd5b81356111ed81611413565b9392505050565b60006020828403121561120657600080fd5b81516111ed81611413565b60008060006060848603121561122657600080fd5b833561123181611413565b9250602084013561124181611413565b929592945050506040919091013590565b6000806040838503121561126557600080fd5b823561127081611413565b946020939093013593505050565b60006020828403121561129057600080fd5b815180151581146111ed57600080fd5b6000602082840312156112b257600080fd5b5035919050565b6000602082840312156112cb57600080fd5b5051919050565b6000806000606084860312156112e757600080fd5b505081359360208301359350604090920135919050565b6020808252825182820181905260009190848201906040850190845b818110156113365783518352928401929184019160010161131a565b50909695505050505050565b6020808252818101527f4f776e61626c653a2063616c6c6572206973206e6f7420746865206f776e6572604082015260600190565b6000821982111561138a5761138a6113e7565b500190565b6000826113ac57634e487b7160e01b600052601260045260246000fd5b500490565b60008160001904831182151516156113cb576113cb6113e7565b500290565b6000828210156113e2576113e26113e7565b500390565b634e487b7160e01b600052601160045260246000fd5b634e487b7160e01b600052603260045260246000fd5b6001600160a01b038116811461114c57600080fdfea2646970667358221220566334fdcd6324e211c6fb72b1562e3f5e9ac219125ecf215284ced03c8ffdd364736f6c63430008070033",
    "sourcePath": "c:/Users/DragonLord/Desktop/Amuse/amuse-finance-sc/contracts/V1/AmuseVault.sol",
    "compiler": {
        "name": "solc",
        "version": "0.8.7+commit.e28d00a7"
    },
    "functionHashes": {
        "AmuseToken()": "ceda5506",
        "WETH()": "ad5c4648",
        "calculateStakeRewards(address,uint256)": "4b18de1a",
        "getAmountsOut(address,address,uint256)": "45608d00",
        "getPool()": "026b1d5f",
        "owner()": "8da5cb5b",
        "renounceOwnership()": "715018a6",
        "setTax(uint256,uint256,uint256)": "a983e4c8",
        "setValutReward(uint256,uint256,uint256)": "eb50811c",
        "stake(uint256)": "a694fc3a",
        "stakeDivisor()": "3c65e66b",
        "stakeTaxPercentage()": "6d307a5e",
        "stakes(address)": "16934fc4",
        "totalTokenLocked()": "c00c4da1",
        "transferOwnership(address)": "f2fde38b",
        "uniswapV2Router()": "1694505e",
        "uniswapV3Factory()": "5b549182",
        "unstake(uint256)": "2e17de78",
        "unstakeTaxPercentage()": "ae429052",
        "valutRewardDivisor()": "b0036c15",
        "valutRewardPercentage()": "c1c649fa",
        "vaultRewardInterval()": "71f54b5e"
    },
    "gasEstimates": {
        "creation": {
            "codeDepositCost": "1042800",
            "executionCost": "infinite",
            "totalCost": "infinite"
        },
        "external": {
            "AmuseToken()": "2414",
            "WETH()": "2415",
            "calculateStakeRewards(address,uint256)": "infinite",
            "getAmountsOut(address,address,uint256)": "infinite",
            "getPool()": "infinite",
            "owner()": "2343",
            "renounceOwnership()": "28225",
            "setTax(uint256,uint256,uint256)": "68792",
            "setValutReward(uint256,uint256,uint256)": "68835",
            "stake(uint256)": "infinite",
            "stakeDivisor()": "2407",
            "stakeTaxPercentage()": "2384",
            "stakes(address)": "6876",
            "totalTokenLocked()": "2339",
            "transferOwnership(address)": "infinite",
            "uniswapV2Router()": "2394",
            "uniswapV3Factory()": "2393",
            "unstake(uint256)": "infinite",
            "unstakeTaxPercentage()": "2406",
            "valutRewardDivisor()": "2317",
            "valutRewardPercentage()": "2361",
            "vaultRewardInterval()": "2428"
        },
        "internal": {
            "_calculateTax(uint256,uint256)": "2373"
        }
    }
}